:020000040800F2
:10000000600E002049010008DD1F0008DF1F000806
:10001000ED1F0008F11F0008F51F00080000000098
:10002000000000000000000000000000F91F0008B0
:10003000FB1F000800000000FD1F0008FF1F000854
:100040006301000863010008630100086301000800
:1000500063010008630100086301000863010008F0
:1000600063010008630100086301000863010008E0
:1000700063010008630100086301000863010008D0
:1000800063010008630100086301000863010008C0
:1000900063010008630100086301000863010008B0
:1000A00063010008630100086301000863010008A0
:1000B0006301000863010008630100086301000890
:1000C0006301000863010008630100086301000880
:1000D000630100085520000863010008C7200008DC
:1000E0006301000863010008630100086301000860
:1000F0006301000863010008630100086301000850
:10010000630100086301000863010008630100083F
:1001100063010008630100084D2100086301000825
:10012000630100086301000863010008630100081F
:10013000DFF810D004F010F800480047811D0008D7
:10014000AFF30080600E0020064880470648004755
:10015000FEE7FEE7FEE7FEE7FEE7FEE7FEE7FEE777
:10016000FEE7FEE74B020008310100080CB5002055
:10017000019000906C48006840F480306A49086043
:1001800000BF6948006800F4003000900198401CEE
:100190000190009818B90198B0F5A06FF1D16248AC
:1001A000006800F4003010B10120009001E0002050
:1001B00000900098012843D15C48006840F010008E
:1001C0005A4908600846006820F0030008600846A5
:1001D000006840F002000860534840685249486097
:1001E0000846406848600846406840F480604860BF
:1001F0000846406820F47C1048600846406840F497
:10020000E81048600846006840F08070086000BF51
:100210004548006800F000700028F9D04248406866
:1002200020F00300404948600846406840F0020062
:10023000486000BF3C48406800F00C000828F9D135
:100240000CBD10B5FFF792FF10BD10B53648006821
:1002500040F00100344908600846406834490840CD
:100260003149486008460068324908402E49086014
:100270000846006820F4802008600846406820F4A2
:10028000FE0048604FF41F008860FFF7DAFF4FF070
:1002900000602949086010BD10B50021002000222F
:1002A000214B5B6803F00C0121B1042906D0082919
:1002B00028D107E0214B224C236027E01F4B204C24
:1002C000236023E0184B5B6803F47010164B5B68E7
:1002D00003F48032022303EB904022B9194B4343CD
:1002E000174C23600DE0104B5B6803F4003323B11F
:1002F000144B4343124C236003E0104B4343104C18
:10030000236003E00D4B0E4C236000BF00BF064B83
:100310005B68C3F303130C4CE15C094B1B68CB40D7
:10032000074C236010BD0000001002400020024076
:100330000000FFF8FFFFF6FE08ED00E000127A0073
:100340000000002000093D00040000203149014365
:10035000314A1160704770B5002100230F22C47824
:1003600004B32D4C246804F4E064C4F5E064210A6D
:10037000C1F10403CA40447804FA03F184781440BC
:1003800021430901254C0678A155047804F01F0586
:100390000124AC4005786D11AD0005F1E025C5F8EC
:1003A000004109E0047804F01F050124AC401C4D15
:1003B0000678761145F8264070BD1A4A0A40024375
:1003C000154B1B1F1A60704739B1134A121D126872
:1003D0000243114B1B1D1A6006E00F4A121D1268E2
:1003E00082430D4B1B1D1A607047042808D14FF043
:1003F000E021096941F004014FF0E022116107E0BA
:100400004FF0E021096921F004014FF0E022116171
:10041000704700000000FA050CED00E000E400E089
:1004200080E100E080FFFF1F10B50446CC48844205
:1004300008D10121042000F02DFB0021042000F050
:1004400029FB46E0C748844208D10121082000F07A
:1004500021FB0021082000F01DFB3AE0C248844245
:1004600008D10121102000F015FB0021102000F020
:1004700011FB2EE0BD48844208D10121202000F06C
:1004800009FB0021202000F005FB22E0B84884424F
:1004900008D10121402000F0FDFA0021402000F0A9
:1004A000F9FA16E0B348844208D10121802000F017
:1004B000F1FA0021802000F0EDFA0AE0AE48844213
:1004C00007D10121801500F0E5FA0021A01500F008
:1004D000E1FA10BD10B50121084600F0DBFA002159
:1004E000012000F0D7FA10BD2DE9F04102460025A9
:1004F0000026002000230024002791F803C00CF000
:100500000F0591F803C00CF0100CBCF1000F03D0E4
:1005100091F802C04CEA050591F800C0BCF1000F4B
:1005200031D0146800202BE04FF0010C0CFA00F3DE
:10053000B1F800C00CEA03069E4220D183004FF0C0
:100540000F0C0CFA03F7BC4305FA03FC4CEA040455
:1005500091F803C0BCF1280F06D14FF0010C0CFA42
:1005600000FCC2F814C00AE091F803C0BCF1480FC7
:1005700005D14FF0010C0CFA00FCC2F810C0401C71
:100580000828D1D31460B1F800C0BCF1FF0F34DDEE
:10059000546800202EE000F1080C4FF0010808FA22
:1005A0000CF3B1F800C00CEA03069E4221D183008F
:1005B0004FF00F0C0CFA03F7BC4305FA03FC4CEAAE
:1005C000040491F803C0BCF1280F05D100F1080C18
:1005D00008FA0CF8C2F8148091F803C0BCF1480F77
:1005E00007D100F1080C4FF0010808FA0CF8C2F826
:1005F0001080401C0828CED35460BDE8F0814FF62F
:10060000FF710180022181700421C1707047024690
:10061000002093680B400BB1012000E000207047E0
:100620000146886880B2704702460020D3680B40BC
:100630000BB1012000E0002070470146C86880B27D
:10064000704701617047416170470AB1016100E084
:1006500041617047C16070474FF480320A43826144
:100660008161826182698269704702460020434B42
:1006700018684FF68073184040EA021008433F4B59
:10068000186070473E49C8617047F0B50A460023BC
:1006900000240021002500F00046B6F1004F02D1F1
:1006A000364EF16901E0354E7168C0F3034583B2FF
:1006B00000F44016B6F5401F08D121F070612F4EAE
:1006C000766826F070662D4F7E6012E000F480168A
:1006D000B6F5801F06D1032606FA05F4A14341F0C2
:1006E000706106E0460D360103FA06F6B14341F0AB
:1006F000706122B1460D360103FA06F6314300F06F
:100700000046B6F1004F02D11C4EF16101E01B4ED4
:100710007160F0BD30B500228B071C0F0F2303FA68
:1007200004F2164B08338C1053F824309343134CC7
:1007300008348D1044F8253023468C1053F82430AB
:100740008C07240F00FA04F423430C4C08348D105A
:1007500044F8253030BD0A49DC310860704700009C
:1007600000080140000C014000100140001401404D
:1007700000180140001C0140002001400000014021
:1007800000002042DF48006840F00100DD490860B9
:1007900008464068DC490840DA4948600846006875
:1007A000DA490840D74908600846006820F48020EC
:1007B00008600846406820F4FE0048604FF41F00BF
:1007C00088607047CF49096821F48031CD4A1160B3
:1007D0001146096821F480211160B0F5803F03D0F3
:1007E000B0F5802F0ED106E0C649096841F480318A
:1007F000C44A116007E0C349096841F4A021C14A15
:10080000116000E000BF00BF704710B50146002234
:10081000002300204A11012A02D1BA4C236806E0C5
:10082000022A02D1B74C236A01E0B64C636A01F098
:100830001F02012494401C400CB1012000E0002064
:1008400010BD38B5002000900024002500BF3120E5
:10085000FFF7DBFF05460098401C00900098B0F5BC
:10086000A06F01D0002DF2D03120FFF7CEFF08B1EC
:10087000012400E00024204638BD01460020A14AA2
:10088000106820F0F80040EAC10010607047A049ED
:1008900008607047024600209A4B586820F47C108C
:1008A00042EA01031843974B58607047984908661D
:1008B000704701460020934A506820F00300084327
:1008C000506070478F48406800F00C007047014648
:1008D00000208C4A506820F0F000084350607047B8
:1008E00001460020874A506820F4E06008435060C9
:1008F000704701460020834A506820F4605040EA67
:10090000C1005060704729B17E4A527A02437D4B44
:100910005A7204E07B4A527A82437A4B5A72704789
:100920007B49D8310860704701460020754A5068FD
:1009300020F440400843506070470021714A203243
:100940001170704A82F82010012802D004280AD1C0
:1009500004E001216B4A2032117005E00521694A4B
:100960002032117000E000BF00BF70476949086085
:1009700070476449096A0143624A116270476549D8
:1009800044390860704730B500210022002400235C
:100990005C4D6D6805F00C0121B1042905D00829D2
:1009A00023D105E05C4D056022E05B4D05601FE052
:1009B000544D6D6805F47012524D6D6805F4803425
:1009C000022505EB92421CB9544D554305600BE0DE
:1009D0004C4D6D6805F400351DB1504D5543056013
:1009E00002E04D4D5543056002E04B4D056000BFF0
:1009F00000BF444D6D6805F0F0010909484D6B5C7E
:100A00000568DD4045603F4D6D6805F4E061090A09
:100A1000434D6B5C4568DD4085603A4D6D6805F47B
:100A20006051C90A3E4D6B5C4568DD40C560354D7F
:100A30006D6805F44041890B3A4D6B5CC568B5FBA8
:100A4000F3F5056130BD29B12E4A526902432D4BA1
:100A50005A6104E02B4A526982432A4B5A6170471B
:100A600029B1284A92690243264B9A6104E0254A3B
:100A700092698243234B9A61704729B1214AD26916
:100A80000243204BDA6104E01E4AD26982431D4BC7
:100A9000DA61704729B11B4AD2680243194BDA6008
:100AA00004E0184AD2688243164BDA60704729B1D5
:100AB000144A12690243134B1A6104E0114A126985
:100AC0008243104B1A6170471249403908607047E1
:100AD0000F49C86470470B49C87170470948406A9C
:100AE00040F0807007494862704701460020054A7F
:100AF00092680A400AB1012000E0002070470149D5
:100B000088727047001002400000FFF8FFFFF6FEF9
:100B1000000042428004424200127A0000093D0077
:100B2000140000202400002010B50446FE48844232
:100B300008D10121C014FFF7ADFF0021E014FFF739
:100B4000A9FFC4E0B4F1804F08D101210846FFF7A6
:100B5000AEFF00210120FFF7AAFFB8E0F34884426E
:100B600008D101210220FFF7A2FF00210220FFF798
:100B70009EFFACE0EE48844208D101210420FFF73B
:100B800096FF00210420FFF792FFA0E0E94884428D
:100B900008D101210820FFF78AFF00210820FFF774
:100BA00086FF94E0E448844208D101211020FFF739
:100BB0007EFF00211020FFF77AFF88E0DF488442A3
:100BC00008D101212020FFF772FF00212020FFF72C
:100BD0006EFF7CE0DA48844208D101214014FFF71F
:100BE00059FF00216014FFF755FF70E0D54884429B
:100BF00009D10121C804FFF74DFF00214FF4002067
:100C0000FFF748FF63E0D048844209D1012108057D
:100C1000FFF740FF00214FF48010FFF73BFF56E045
:100C2000CA48844209D101214805FFF733FF00215A
:100C30004FF40010FFF72EFF49E0C548844208D169
:100C400001214020FFF733FF00214020FFF72FFF55
:100C50003DE0C048844208D101218020FFF727FFF2
:100C600000218020FFF723FF31E0BB48844208D1F8
:100C700001218015FFF71BFF0021A015FFF717FFCB
:100C800025E0B648844209D101210804FFF702FF9C
:100C900000214FF48030FFF7FDFE18E0B048844299
:100CA00009D101214804FFF7F5FE00214FF400307F
:100CB000FFF7F0FE0BE0AB48844208D10121880425
:100CC000FFF7E8FE00214FF48020FFF7E3FE10BDA0
:100CD00000220288944B98420ED0994B98420BD038
:100CE000B0F1804F08D0914B984205D0904B98427C
:100CF00002D0904B984204D14FF68F731A404B8824
:100D00001A438D4B984207D08C4B984204D04FF633
:100D1000FF431A40CB881A4302808B8883850B8857
:100D20000385814B98420BD0854B984208D08B4B62
:100D3000984205D08A4B984202D08A4B984201D102
:100D40000B7A038601238382704770B5002400224A
:100D50000023058C4FF6FE7635400584028C83888F
:100D6000048B4FF68F752C40B51E2C400D882C43FC
:100D7000751E2A400D892A434D882A436A4DA84290
:100D80000BD06F4DA84208D0744DA84205D0744DC9
:100D9000A84202D0734DA84213D14FF6F7752A40EE
:100DA0004D892A434FF6FB752A408D882A434FF61A
:100DB000FF652B404FF6FF552B408D892B43CD8986
:100DC0002B4383800483CD888586028470BD70B5F3
:100DD000002400220023058C4FF6EF763540058471
:100DE000028C8388048B48F6FF752C404FF6FF4534
:100DF0002C400D884FF6FF7606EA05252C434FF66A
:100E0000DF752A400D8906EA05152A434D8806EA52
:100E100005152A43444DA84202D0494DA8421DD190
:100E20004FF67F752A404D894FF6FF7606EA051585
:100E30002A434FF6BF752A408D8806EA05152A43D6
:100E40004FF6FF352B404FF2FF752B408D8906EA98
:100E500085052B43CD8906EA85052B4383800483D2
:100E6000CD880587028470BD70B500240022002360
:100E7000058C4FF6FF6635400584028C8388848B91
:100E80004FF68F752C404FF6FC752C400D882C4387
:100E90004FF6FF552A400D894FF6FF7606EA0525E5
:100EA0002A434D8806EA05252A431F4DA84202D051
:100EB000234DA8421DD14FF2FF752A404D894FF6B0
:100EC000FF7606EA05252A434FF6FF352A408D882E
:100ED00006EA05252A434EF6FF752B404DF6FF75B1
:100EE0002B408D8906EA05152B43CD8906EA0515A9
:100EF0002B4383808483CD888587028470BD70B541
:100F0000002200230024058C4EF6FF763540058430
:100F1000038C8488828B48F6FF752A404FF6FF4584
:100F20002A400D8820E00000002C01400004004011
:100F300000080040000C0040001000400014004079
:100F400000340140004C0140005001400054014079
:100F500000180040001C00400020004000400140FC
:100F600000440140004801404FF6FF7606EA05259F
:100F70002A434DF6FF752B400D8906EA05352B43B4
:100F80004D8806EA05352B43FA4DA84202D0FA4DAA
:100F9000A84208D14BF6FF752C408D894FF6FF769D
:100FA00006EA85152C4384808283CD88A0F84050C2
:100FB000038470BD828B4FF2FF331A408283828B91
:100FC0004FF6FF7303EA01231A4382837047F0B59B
:100FD0000C461546002200210026078C4EF6FF7CA9
:100FE00007EA0C070784828B018C4FF6FF7707EA2C
:100FF000043640F6FF473A404FF6FF7707EA0527E9
:101000003A434FF6FF7707EA03373A43D94FB842DE
:101010000ED0D94FB8420BD0B0F1804F08D0D74F87
:10102000B84205D0D64FB84202D0D64FB84206D10A
:101030004DF6FF77394046F48057394305E047F6CF
:10104000FF57394044F48057394382830184F0BD0F
:10105000828B4FF6F3731A408283828B0A4382831A
:101060007047F0B50C461546002200210026078C7B
:101070004FF6FF6C07EA0C070784828B018C4FF652
:10108000FF7707EA04264FF60C773A404FF6FF77D2
:1010900007EA03172F433A43B64FB8420ED0B64F74
:1010A000B8420BD0B0F1804F08D0B44FB84205D051
:1010B000B34FB84202D0B34FB84206D14FF6FF57F4
:1010C000394046F48077394305E04FF2FF57394005
:1010D00044F48077394382830184F0BD028B4FF260
:1010E000FF331A400283028B4FF6FF7303EA01239A
:1010F0001A4302837047F0B50C46154600220021C2
:101100000026078C4FF6EF7C07EA0C070784028B5A
:10111000018C4FF6FF7707EA041640F6FF473A4086
:101120004FF6FF7707EA03373A434FF6FF7707EAB0
:1011300005273A438F4FB8420ED08F4FB8420BD09D
:10114000B0F1804F08D08D4FB84205D08C4FB842D7
:1011500002D08C4FB84206D14FF6DF77394046F0C7
:101160001007394305E04FF65F77394044F0100728
:10117000394302830184F0BD028B4FF6F3731A40AA
:101180000283028B0A4302837047F0B50C46154672
:1011900000220021068C4FF6FE773E400684028B2B
:1011A000018C4FF60C7632407E1C06EA03162E4365
:1011B0003243704EB0420ED06F4EB0420BD0B0F101
:1011C000804F08D06D4EB04205D06D4EB04202D077
:1011D0006C4EB04206D14FF6FD76314044F0010628
:1011E000314305E04FF6F576314044F001063143D6
:1011F00002830184F0BD70B505460C465D4885420A
:101200000ED05D4885420BD0B5F1804F08D05B48C9
:10121000854205D05A48854202D05A48854200D1BD
:1012200000E000BF208850B92389A2886188284641
:10123000FFF7ABFFE1882846FFF79EFF25E02088F7
:1012400004280AD12389A28861882846FFF753FF22
:10125000E1882846FFF742FF17E0208808280AD1D6
:101260002389A28861882846FFF7FBFEE18828468B
:10127000FFF7EEFE09E02389A28861882846FFF780
:10128000A6FEE1882846FFF795FE70BD2DE9F041E6
:1012900005460C4600260127608808B9022600E0B2
:1012A0000026A088012801D1022700E0012720881C
:1012B000A0B92389A28861882846FFF766FFE188E4
:1012C0002846FFF759FF23893A4631462846FFF75B
:1012D00012FFE1882846FFF701FF13E02389A28867
:1012E00061882846FFF707FFE1882846FFF7F6FEEA
:1012F00023893A4631462846FFF747FFE1882846CA
:10130000FFF73AFFBDE8F0810A884B881A438B88C3
:101310001A43CB881A430B891A434B891A438B898A
:101320001A43A0F8442070474FF6FF7181800021D6
:101330000180C1804180017270470021018041809D
:101340008180C180018141818181C18170470021FB
:1013500001804180012181800021C180018170478D
:101360000021018041808180C18001814181818192
:1013700070470000002C0140003401400004004090
:1013800000080040000C004021B1028842F0010238
:10139000028004E002884FF6FE731A400280704714
:1013A00031B1B0F8442042F40042A0F8442005E0F6
:1013B000B0F84420C2F30E02A0F8442070471AB1DE
:1013C00083890B43838102E083898B438381704748
:1013D0008182704741EA0203A0F8483070471AB191
:1013E00083890B43838102E083898B438381704728
:1013F00001894FF6F8721140018170470A460021B9
:1014000001894FF68F73194011430181704730B540
:1014100004460D4629462046FFF7F0FF208940F09C
:101420000700208130BD2DE9F04104460D461646E7
:101430001F46602D06D13B46012231462046FFF76C
:101440005AFE05E03B46012231462046FFF79DFE4D
:1014500029462046FFF7D2FF208940F0070020816F
:10146000BDE8F08130B50C4600210189C9B24FF6C4
:10147000FF7505EA0325154325432943018130BD46
:101480002DE9F04105460E4617469846002443468E
:101490003A4631462846FFF7E5FF2C894FF6F870AB
:1014A000044044F007044FF68F70044044F0700489
:1014B0002C81BDE8F081F0B504460D4616461F4666
:1014C0003B46324629462046FFF7CCFF208940F4B0
:1014D00080402081F0BD0185828270470A4600214C
:1014E00001884FF68F731940114301807047F0B5A2
:1014F0000C4615461E460021002200230189028B5E
:10150000038C4FF6F877394021434FF6FC473A40B9
:1015100040F201173A434FF6DD773B404FF6FF7735
:1015200007EA06172F433B43018102830384F0BD82
:101530000A460021018B4FF68F7319401143018336
:1015400070470A460021018B48F6FF7319404FF699
:10155000FF7303EA02231943018370470A460021FF
:10156000818B4FF68F7319401143818370470A4670
:101570000021818B48F6FF7319404FF6FF7303EA91
:10158000022319438183704721B1028842F080020F
:10159000028004E002884FF67F731A400280704791
:1015A00021B1828842F00402828004E082884FF6F2
:1015B000FB731A408280704721B1828842F0080292
:1015C000828004E082884FF6F7731A408280704769
:1015D00021B1828842F00102828004E082884FF6C5
:1015E000FE731A40828070470A460021018B4FF635
:1015F000F77319401143018370470A460021018B9C
:101600004FF2FF7319404FF6FF7303EA02231943A9
:10161000018370470A460021818B4FF6F77319400A
:101620001143818370470A460021818B4FF2FF737B
:1016300019404FF6FF7303EA022319438183704771
:101640000A460021018B4FF6FB73194011430183B9
:1016500070470A460021018B4FF6FF3319404FF6C1
:10166000FF7303EA02231943018370470A460021EE
:10167000818B4FF6FB7319401143818370470A46F3
:101680000021818B4FF6FF3319404FF6FF7303EAB9
:1016900002231943818370470A460021018B4FF6CC
:1016A0007F7319401143018370470A460021018B63
:1016B000C1F30E014FF6FF7303EA022319430183BE
:1016C00070470A460021818B4FF67F731940114302
:1016D000818370470A460021818BC1F30E014FF6CA
:1016E000FF7303EA02231943818370470A460021EE
:1016F000018C4FF6FD7319401143018470470A466F
:101700000021018C4FF6F773194011430184704793
:101710000A460021018C4FF6DF7319404FF6FF7324
:1017200003EA02131943018470470A460021018C21
:101730004FF67F7319404FF6FF7303EA0213194304
:10174000018470470A460021018C4FF6FF5319406F
:101750004FF6FF7303EA02231943018470470A46D8
:101760000021018C4FF2FF7319404FF6FF7303EA1B
:1017700002231943018470470A460021018C4DF66B
:10178000FF7319404FF6FF7303EA023319430184D4
:10179000704730B5002301248C40A3B2048C9C43D5
:1017A0000484048C02FA01F5ADB22C43048430BDEC
:1017B00030B5002304248C40A3B2048C9C430484E1
:1017C000048C02FA01F5ADB22C43048430BD70B52F
:1017D0000346002000241846183001258D40ACB285
:1017E0001D8CA5431D8409B1082909D100EB6100B6
:1017F000056825F0700505600568154305600EE075
:101800000D1FC5F34E052844056825F4E045056025
:1018100005684FF6FF7606EA02263543056070BD7F
:1018200021B1028842F00202028004E002884FF6F1
:10183000FD731A400280704721B1028842F0040211
:10184000028004E002884FF6FB731A400280704762
:1018500021B1828842F08002828004E082884FF6C3
:101860007F731A408280704702884FF6F7731A40E0
:10187000028002880A430280704782884FF68F7385
:101880001A40828082880A438280704702894FF61C
:10189000F8731A40028102890A4302817047028963
:1018A0004FF67F731A40028102890A430281704712
:1018B00081847047818570478186704701877047B2
:1018C00081877047A0F84010704702884FF6FF43A9
:1018D0001A40028002880A43028070470146888EBF
:1018E00070470146088F70470146888F7047014650
:1018F000B1F8400070470146888C70470146088D5A
:10190000704702460020138A0B400BB1012000E013
:1019100000207047CA430282704730B5024600205B
:1019200000230024158A05EA0103958905EA0104CC
:1019300013B10CB1012000E0002030BDCA43028287
:101940007047000010B50446FB48844209D10121CC
:101950008803FFF79FF800214FF48040FFF79AF8C3
:1019600032E0F648844209D101214804FFF79FF88C
:1019700000214FF40030FFF79AF825E0F048844248
:1019800009D101218804FFF792F800214FF480204B
:10199000FFF78DF818E0EB48844209D10121C80413
:1019A000FFF785F800214FF40020FFF780F80BE0E7
:1019B000E548844208D101210805FFF778F80021A5
:1019C0004FF48010FFF773F810BD2DE9F04786B093
:1019D00005460E460024A24600BFA1460027B08956
:1019E00000B100BF2F462C8A4CF6FF700440F088EF
:1019F00004432C82AC894EF6F3100440B088318940
:101A00000843718908430443AC81AC8A4FF6FF4018
:101A10000440B0890443AC8201A8FEF7B4FFC64875
:101A2000874202D1DDF810A001E0DDF80CA0A88902
:101A300000F4004040B10AEBCA0000EB0A10316824
:101A40004900B0FBF1F807E00AEBCA0000EB0A100E
:101A500031688900B0FBF1F86420B8FBF0F00401B4
:101A60002009642101FB1089A88900F4004040B1DD
:101A7000322000EBC900B0FBF1F000F00700044396
:101A800008E0322000EB09106421B0FBF1F000F017
:101A90000F0004432C8106B0BDE8F0874FF41651C7
:101AA000016000218180C18001810C2141810021E0
:101AB0008181704710B502460020108A4FF2FF0363
:101AC00018400B884C8823438C882343CC882343BD
:101AD0001843108210BD0021018041808180C180A7
:101AE000704721B1828942F40052828104E08289E8
:101AF0004DF6FF731A4082817047F0B5034600240B
:101B000000260025002040F66A17B94200D100BF28
:101B10001846C1F3421401F01F06012707FA06F523
:101B2000012C01D10C3004E0022C01D1103000E076
:101B300014301AB107682F43076002E00768AF430B
:101B40000760F0BD1AB1838A0B43838202E0838A67
:101B50008B4383827047028A4FF6F0731A400282E9
:101B6000028A0A430282704782894FF2FF731A4049
:101B7000828182890A438281704721B1828942F041
:101B80000202828104E082894FF6FD731A4082814D
:101B90007047028A4FF6DF731A400282028A0A43B4
:101BA0000282704721B1028A42F48042028204E03C
:101BB000028A4BF6FF731A4002827047C1F3080293
:101BC0008280704701468888C0F308007047818989
:101BD00041F0010181817047028BD2B20283028BF6
:101BE00042EA012202837047028B02F47F420283A1
:101BF000028B0A430283704721B1828A42F020029D
:101C0000828204E0828A4FF6DF731A408282704734
:101C100021B1828A42F01002828204E0828A4FF669
:101C2000EF731A408282704721B1828A42F0080223
:101C3000828204E0828A4FF6F7731A4082827047EC
:101C400021B1828942F40042828103E08289C2F399
:101C50000E028281704721B1828A42F40062828240
:101C600004E0828A4FF2FF731A4082827047828AB0
:101C70004FF6FB731A408282828A0A43828270473F
:101C800021B1828A42F00202828204E0828A4FF607
:101C9000FD731A408282704702460020B1F5007F32
:101CA00000D100BF13880B400BB1012000E00020E1
:101CB000704701F40072B2F5007F00D100BFCA4343
:101CC0000280704770B502460024002300250020E2
:101CD00040F66A16B14200D100BFC1F3421501F0CF
:101CE0001F03012606FA03F3012D02D19689334022
:101CF00006E0022D02D1168A334001E0968A334075
:101D00000C12012606FA04F41688344013B10CB103
:101D1000012000E0002070BD10B50022002340F635
:101D20006A14A14200D100BF0A1201249440A3B258
:101D3000DC43048010BD0000003801400044004036
:101D400000480040004C0040005000402DE9F05F8A
:101D500004460D4600227E4B2046294601F07BFFBB
:101D6000804600227B4B01F0E8FF064600227A4BBA
:101D700001F06BFF824602F05CF880B2BDE8F09F94
:101D800086B000F0A8FB01F09FFA00F069FC00F0BB
:101D900019FD00F0ECFA01F0DBFA01F0F9FB01F0BB
:101DA000B7F802A904A801F08BF9DDE90201CDE939
:101DB00000016AA0DDE9042302F0CAFB704ADDE9F4
:101DC00004011268C2E90C0101F089FB01F012FB69
:101DD000BCE06C4800680128FAD16B49C87802F071
:101DE0001BF880460022694B01F0A7FF04460D4610
:101DF0006549887802F010F8064622462B4601F025
:101E000083FE5F4A1268C2E90E0101F0EFFB5C48F5
:101E10000068D0E910211046FFF798FF04462146DC
:101E20005BA002F095FB56480068D0E910211046EF
:101E3000FFF78CFF044621465748FFF73DFD00227F
:101E4000564B574903C901F000FF82468B464E4965
:101E5000487801F0E1FF804600224C4B01F06DFF15
:101E600004460D464849087801F0D6FF064622464A
:101E70002B4601F049FE52465B46CDE9000101F0D8
:101E8000F1FF08D200204549FFF760FF04462146D4
:101E90004148FFF715FD3C49487801F0BDFF064673
:101EA00000223A4B01F049FF04460D4636490878B6
:101EB00001F0B2FF804622462B4601F025FE824605
:101EC00037480CC8504601F0E5FF03D200213248E4
:101ED000FFF7F6FC2A480068324A334BD0E90E413E
:101EE000204601F0D1F8314801F000FA2C4924488D
:101EF0000068303001F0E4F821480068D0E90C4374
:101F00002246DDE9040101F0ADFF06D124480CC8EA
:101F1000DDE9020101F0A6FF15D0214803C8CDE993
:101F2000000117480168D1E90C43224620A002F0C5
:101F30000FFB13480068416B006BCDE904011848A2
:101F400003C8CDE9020100200E49086041E7000006
:101F500000408F40000028400000F03F536574743B
:101F6000696E6756616C75653A2074656D703A25C7
:101F70006C662C2068756D693A256C660A00000055
:101F800028000020380000204400002000002440E9
:101F90000925640A0000000000040040000014400D
:101FA000300000209A9999999999B93F20A107008A
:101FB00053657474696E6756616C7565204368611A
:101FC0006E6765643A2074656D703A256C662068AA
:101FD000756D693A256C660A00000000704704E0E0
:101FE0006BA002F0B5FA00BFFEE7F9E700BFFEE71D
:101FF00000BFFEE700BFFEE770477047704710B5AF
:10200000002407E0654850F82400401C634941F86B
:102010002400641C022CF5DB60480068C82811D33A
:1020200000205E4908605E48006858B95D4800F0CD
:10203000EEF9012802D15A49086003E04FF0FF3061
:102040005749086055484068322802D30020534958
:10205000486010BD10B540F225515348FFF732FEDD
:10206000D8B15148FFF7AEFDC4B25048B0F80004F3
:10207000C0F30E0040F2FF3188420EDA4B49B1F84E
:102080000014C1F30E00411C484AB2F8002461F369
:102090000E024649A1F800240C5440F22441424863
:1020A000FFF710FE01280DD14048B0F8000420F4DD
:1020B000004000F500403D49A1F800043A48FFF710
:1020C00081FDC4B210BD10B540F225513848FFF76C
:1020D000F9FDD8B13648FFF775FDC4B23548B0F800
:1020E0000004C0F30E0040F2FF3188420EDA31499D
:1020F000B1F80014C1F30E00411C2E4AB2F80024BE
:1021000061F30E022B49A1F800240C5440F2244143
:102110002748FFF7D7FD012817D12648B0F800045B
:1021200020F4004000F500402249A1F800042048B6
:10213000FFF748FDC4B220A11E4801F0FBFA08B128
:10214000012000E000201F49087010BD08B50121E2
:102150001D48FFF7E2FBD0B11C48006880F020006A
:102160001A4908600F4800F052F901280BD10C49B8
:1021700008600C48407800900A480378C27881785B
:1021800013A002F0E5F901210F48FFF7D7FB08BDC6
:10219000686172646661756C740000003C00002028
:1021A0003800002044000020003801405A0400207C
:1021B0000048004058000020434C4F5345440D0A4E
:1021C0000000000049000020001000400C0C0140FD
:1021D00025642E25640925642E25640A000000006C
:1021E000F0B503460D461646002729460A2E03D0B1
:1021F000002008702846F0BD33B9302001F8010BEB
:10220000002008702846F6E7002B03DA2D2001F89D
:10221000010B5B4242F210720DE093FBF2F404B941
:1022200037B104F1300001F8010B04FB1233012730
:102230000A2092FBF0F2002AEFDC0020087028460A
:10224000D9E70FB470B586B006460CA8019073E0CC
:102250000B9800785C281CD10B98401C0B900078E0
:102260006E2809D072280FD10D213046FFF7A6FC49
:102270000B98401C0B900BE00A213046FFF79EFCA8
:102280000B98401C0B9003E00B98401C0B9000BF78
:102290004BE00B980078252840D10B98401C0B9000
:1022A0000078642818D0732833D1019810C80190A1
:1022B0000BE021783046FFF781FC00BF80213046DB
:1022C000FFF7EAFC0028F9D0641C20780028F0D140
:1022D0000B98401C0B9020E0019820C801900A2226
:1022E00002A92846FFF77CFF02AC0BE021783046BC
:1022F000FFF764FC00BF80213046FFF7CDFC0028CB
:10230000F9D0641C20780028F0D10B98401C0B9069
:1023100003E00B98401C0B9000BF06E00B9810F8F0
:10232000011B0B903046FFF749FC00BF802130466F
:10233000FFF7B2FC0028F9D00B980078002887D16D
:1023400006B070BC5DF814FB08B501214020FEF713
:1023500087FB2020ADF8000010208DF8030003203B
:102360008DF8020069465148FEF7BEF808BD10B569
:10237000FFF7EAFF20214D48FEF763F910BD08B5CD
:102380002020ADF8000048208DF80300694647483A
:10239000FEF7AAF808BD08B52020ADF8000010200F
:1023A0008DF8030003208DF8020069463F48FEF7D0
:1023B0009BF808BD70B50025002424E000BF202153
:1023C0003A48FEF724F90028F9D0282000F08EFFC3
:1023D00020213648FEF71BF901280DD100BF20212E
:1023E0003248FEF714F90128F9D0C4F107010120A1
:1023F0008840C0B2054304E0C4F1070101208840D1
:102400008543601CC4B2082CD8DB284670BD10B5CB
:102410000446FFF7C0FF20212448FEF714F944F2D8
:10242000506000F063FF20212048FEF70AF91E20CB
:1024300000F05CFFFFF7A3FF20211C48FEF7E7F840
:1024400080BB00BF20211948FEF7E1F80028F9D031
:1024500000BF20211548FEF7DAF80128F9D0FFF770
:10246000A9FF2070FFF7A6FF6070FFF7A3FFA07021
:10247000FFF7A0FFE070FFF79DFF2071FFF78BFFD4
:1024800020210A48FEF7DDF8207861780844A17819
:102490000844E17808442179884201D1012010BD27
:1024A0000020FCE7FFE70020F9E7000000100140F2
:1024B00008B54FF4A060FDF749FF25208DF8000016
:1024C00001208DF801008DF802008DF803006846A8
:1024D000FDF741FF08BD00B585B001210420FEF7DE
:1024E000BFFA01218803FEF7BBFA4FF40070ADF884
:1024F000100018208DF8130003208DF8120004A995
:102500005548FDF7F1FF4FF48060ADF8100004204E
:102510008DF8130004A95048FDF7E6FF4FF4E130B1
:1025200000900020ADF80400ADF80600ADF80800FA
:10253000ADF80C000C20ADF80A0069464748FFF7DB
:1025400044FAFFF7B5FF012240F225514348FFF757
:10255000D4FA012240F224414048FFF7CEFA01218B
:102560003E48FFF7BEFA05B000BD70B504460D4603
:1025700029462046FFF722FB00BF80212046FFF7B7
:102580008BFB0028F9D070BD2DE9F04107460D46C0
:102590001646002405E0295D3846FFF7E6FF601C7B
:1025A000C4B2B442F7DB00BF40213846FFF774FBEA
:1025B0000028F9D0BDE8F08170B506460C4600252C
:1025C00000BF615D3046FFF7D0FF6D1C605D0028E5
:1025D000F7D100BF40213046FFF75EFB0028F9D05D
:1025E00070BD2DE9F04105460C46260AE7B231469A
:1025F0002846FFF7E3FA00BF80212846FFF74CFB8F
:102600000028F9D039462846FFF7D8FA00BF8021C4
:102610002846FFF741FB0028F9D0BDE8F08170B5EE
:1026200004460D46E1B20D48FFF7C8FA00BF80210D
:102630000A48FFF731FB0028F9D0204670BD10B5DD
:10264000044600BF20210548FFF726FB0028F9D0EB
:102650000248FFF7B7FA10BD0008014000380140FA
:1026600008B501210820FEF7FBF92020ADF8000095
:1026700010208DF8030003208DF8020069461148F0
:10268000FDF732FF0120ADF8000069460D48FDF767
:102690002BFF0220ADF8000069460A48FDF724FF31
:1026A00020210848FDF7CDFF01210648FDF7C9FFAD
:1026B00002210448FDF7C5FF08BD2022014B143359
:1026C0001A607047000C014008B54FF4A060FDF798
:1026D0003DFE27208DF8000000208DF801008DF8C8
:1026E000020001208DF803006846FDF734FE08BDA6
:1026F00000B585B001218804FEF7BFF9012108204B
:10270000FEF7AEF94FF48060ADF8100018208DF898
:10271000130003208DF8120004A9FB48FDF7E4FE26
:102720004FF40060ADF8100004208DF8130004A9E8
:10273000F548FDF7D9FE4FF4E13000900020ADF8E8
:102740000400ADF80600ADF80800ADF80C000C2050
:10275000ADF80A006946ED48FFF737F9012240F26B
:102760002551EA48FFF7C9F9012240F22441E74820
:10277000FFF7C3F9FFF7A8FF0121E448FFF7B1F91C
:1027800005B000BD08B501210820FEF769F94FF436
:102790008070ADF8000010208DF8030003208DF844
:1027A00002006946D848FDF79FFE01210820FEF788
:1027B00057F94FF40070ADF800006946D248FDF7B4
:1027C00093FE08BD10B5FFF7DDFFFFF791FF4FF453
:1027D0000071CD48FDF735FF4FF48071CA48FDF711
:1027E00032FF10BD10B54FF40071C748FDF72BFF45
:1027F000C74800F07BFD4FF40071C348FDF721FF8F
:1028000010BD2DE9F04106460C4615461F46C1484D
:10281000B0F800046FF30E00BE49A1F80004324680
:10282000BDA1BA48FFF70DFD1CB915B90120BDE8DF
:10283000F0814FF47A7107FB01F000F057FD0020A2
:10284000B449B1F80014C1F30E01B24A5054114614
:10285000B3A001F07DFEAF48B0F800046FF30E00A6
:10286000AC49A1F800040846B0F8000420F4004088
:10287000A1F80004B4B1ADB12146A64800F05AFF5A
:1028800008B1012000E0002040B92946A14800F02D
:1028900051FF08B1012000E0002008B10120C6E787
:1028A0000020C4E744B121469A4800F043FF08B134
:1028B0000120BCE70020BAE72946964800F03AFF1D
:1028C00008B10120B3E70020B1E710B500244FF4B0
:1028D00000718D48FDF7B5FE92A001F039FE9548D4
:1028E00000F004FD15E0214693A001F031FE4FF405
:1028F000FA73002296A197A0FFF783FF28B1214623
:1029000095A001F025FE012010BDFFF76BFF601CB4
:10291000C4B20A2CE7DB0020F6E710B5044624B168
:10292000012C0AD0022C18D10FE040F6C41391A25A
:1029300087A193A0FFF765FF10BD40F6C4138DA2D9
:1029400083A192A0FFF75DFFF6E740F6C41389A2CA
:102950007FA191A0FFF755FFEEE70020ECE730B52F
:102960009FB004460D462B4622468EA101A801F0D9
:10297000FFFD41F28833002275A101A8FFF741FF56
:102980001FB030BD70B5A0B004460D4616462B46AC
:10299000224689A102A8009601F0EAFD4FF47A735D
:1029A00000226BA102A8FFF72CFF20B070BD10B56C
:1029B00086B004460CB1012000E00020024684A14C
:1029C00001A801F0D5FD4FF4FA73002260A101A81F
:1029D000FFF717FF06B010BDF0B5B9B006460F46B9
:1029E00014461D46642120A800F099FE16B1012E60
:1029F00010D107E03B467AA27AA120A8009401F00A
:102A0000B7FD08E03B467BA276A120A8009401F028
:102A1000AFFD00E000BF00BF052D06DA20AB2A465F
:102A200075A102A801F0A4FD04E020AA77A102A8E4
:102A300001F09EFD4FF47A6378A245A102A8FFF74A
:102A4000E0FE39B0F0BD70B5BCB004460D46164688
:102A5000FCB12B46012275A11EA801F089FD32466A
:102A600077A1684601F084FD4FF4FA73002238A183
:102A70001EA8FFF7C6FE50B14FF4FA73002234A12E
:102A80006846FFF7BEFE10B101203CB070BD0020CB
:102A9000FBE72B46002265A11EA801F069FD4FF45B
:102AA000FA7300222AA11EA8FFF7ABFEEDE710B5CE
:102AB0004FF4FA73002226A165A0FFF7A2FEA0B191
:102AC00067A1144800F036FE08B1022010BD67A1CE
:102AD000104800F02FFE08B10320F7E766A10D486B
:102AE00000F028FE08B10420F0E70020EEE710B562
:102AF00000244FF4FA73002215A155A0FFF781FEC0
:102B0000002800D0BEE0EFE0000C0140004800408B
:102B100020A107005800002025730D0A00000000C6
:102B2000257300000D0A4154B2E2CAD42E2E2E2E77
:102B30002E0D0A0080841E000D0A4154B2E2CAD450
:102B4000B4CECAFD2025642E2E2E2E2E2E0D0A0068
:102B50004F4B0000415400000D0A4154B2E2CAD468
:102B6000C6F4B6AFB3C9B9A62025642E2E2E2E2EDC
:102B70002E0D0A006E6F206368616E6765000000AD
:102B800041542B43574D4F44453D310041542B4355
:102B9000574D4F44453D320041542B43574D4F4410
:102BA000453D330041542B43574A41503D22257344
:102BB000222C22257322000041542B4357534150AD
:102BC0003D222573222C222573222C312C256400D2
:102BD00041542B4349504D55583D25640000000099
:102BE00054435000222573222C222573222C257356
:102BF000000000005544500041542B4349505354A9
:102C00004152543D25642C257300000041542B4350
:102C1000495053544152543D25730000414C524594
:102C2000415920434F4E4E454354000041542B43DD
:102C300049505345525645523D25642C257300009A
:102C400041542B43495053544F3D2573000000001D
:102C500041542B43495053544154555300000000F4
:102C60005354415455533A320D0A000053544154C1
:102C700055533A330D0A00005354415455533A34D6
:102C80000D0A00006EA1724800F054FD10B144F02E
:102C9000010401E024F001046EA16D4800F04AFD3A
:102CA00010B144F0020401E024F002046DA1684870
:102CB00000F040FD10B144F0040401E024F00404ED
:102CC0006CA1634800F036FD10B144F0080401E047
:102CD00024F008046BA15E4800F02CFD10B144F014
:102CE000100401E024F01004204610BD2DE9F0414D
:102CF00005460F464FF4FA730022AFF2AC1165A0FF
:102D0000FFF77FFD66A1524800F014FD06460EB1A4
:102D1000B61D02E00020BDE8F081002409E0305D2E
:102D20002855285D222802D10020285503E0601C88
:102D3000C4B2BC42F3DB00BF0120ECE710B54FF496
:102D4000FA730022AFF2F81157A0FFF75AFD08B945
:102D5000002010BD4FF4FA7357A2AFF20C2157A018
:102D6000FFF74FFDF5E710B5574800F0BFFA57A140
:102D70005748FFF766FA574800F0B8FA10BD2DE93A
:102D8000F04186B007460C4615461E464FF0000837
:102D900047B12246AFF278214D48FFF752FA4FF083
:102DA00001081CE0052E06DAAB1C32464AA101A838
:102DB00001F0DEFB04E0AA1C4CA101A801F0D8FB45
:102DC0004FF47A7300224DA101A8FFF71AFD4FF4CA
:102DD0007A7300224AA12046FFF713FD8046404641
:102DE00006B0BDE8F08170B5044600251848B0F87B
:102DF00000046FF30E001649A1F800040846B0F86D
:102E0000000420F40040A1F8000400BF1048B0F80E
:102E10000004C00B0028F9D000200D49B1F80014BF
:102E2000C1F30E010A4A50540CB1154605E036A113
:102E3000074800F07FFC00B1054D284670BD00003A
:102E40002B4349505354415455533A302C00000001
:102E5000580000202B4349505354415455533A31A4
:102E60002C0000002B4349505354415455533A32DF
:102E70002C0000002B4349505354415455533A33CE
:102E80002C0000002B4349505354415455533A34BD
:102E90002C00000041542B434946535200000000CF
:102EA000415049502C22000041542B4349504D4F72
:102EB00044453D31000000003E00000041542B43DA
:102EC000495053454E44000040420F002B2B2B002D
:102ED0000048004020A1070041542B43495053456E
:102EE0004E443D25642C25640000000041542B43D2
:102EF000495053454E443D25640000003E200000EB
:102F000053454E44204F4B002B49504400000000D5
:102F100010B579A001F01CFB7EA001F019FB4FF465
:102F200080718248FDF78DFB81A001F011FB00BF8D
:102F30000020FFF7F2FC0028FAD085A001F008FB82
:102F400000BF8AA18CA0FFF70AFD0028F9D08CA051
:102F500001F0FEFA00BF0020FFF729FD0028FAD09B
:102F60008DA001F0F5FA00BF052392A293A10020E5
:102F7000FFF732FD0028F7D094A001F0E9FA00BF76
:102F8000FFF7DCFE0028FBD097A001F0E1FA10BDAE
:102F900010B59CB0642103A800F0C1FB98480068FC
:102FA00001280DD19748C07896498978CDE900105D
:102FB00094484378027894A103A801F0D9FA03E079
:102FC000A0A103A801F0D4FA03A9A3A001F0C0FABC
:102FD0000523002203A90120FFF7D1FE9F480078B6
:102FE000002824D0FFF7BFFE00BFFFF760FD0446B6
:102FF000002CFAD0042C15D199A001F0A9FA00BF39
:103000005AA15DA0FFF7ABFC0028F9D000BF052353
:1030100068A26AA10020FFF7DFFC0028F7D098A083
:1030200001F096FA00BFFFF789FE0028FBD01CB024
:1030300010BD10B589480078002824D0FFF793FE12
:1030400000BFFFF734FD0446002CFAD0042C15D144
:1030500083A001F07DFA00BF44A147A0FFF77FFCE9
:103060000028F9D000BF052352A254A10020FFF789
:10307000B3FC0028F7D082A001F06AFA00BFFFF786
:103080005DFE0028FBD010BDF0B5B5B006460F467A
:1030900014461D46C82103A800F041FB32463B46BA
:1030A0007E4903A8CDE9004501F062FA052300221C
:1030B00003A90120FFF763FEFFF7BBFF35B0F0BDAA
:1030C00070B504460D460523002275490120FFF71F
:1030D00056FE0120FFF787FE06467B21304600F0B2
:1030E0003BFB06462B4622466EA1304600F040FBD5
:1030F000FFF79FFF70BD00000D0AD5FDD4DAC5E4CF
:10310000D6C32045535038323636202E2E2E2E2E42
:103110002E0D0A000D0ACAB9C4DC204553503832BE
:103120003636202E2E2E2E2E2E0D0A00000C01409B
:103130000D0AD5FDD4DAC5E4D6C3B9A4D7F7C4A324
:10314000CABD20535441202E2E2E2E2E2E0D0A00A5
:103150000D0AD5FDD4DAC1ACBDD32057694669202C
:103160002E2E2E2E2E2E0D0A000000007177657275
:1031700074403132333435004A4E5741000000006C
:103180000D0ABDFBD6B9B6E0C1ACBDD3202E2E2EA4
:103190002E2E2E0D0A0000000D0AD5FDD4DAC1AC8A
:1031A000BDD320536572766572202E2E2E2E2E2EC4
:1031B0000D0A000031333436350000003139322E2B
:1031C0003136382E312E3130380000000D0ABDF86E
:1031D000C8EBCDB8B4ABB7A2CBCDC4A3CABD202E2B
:1031E0002E2E2E2E2E0D0A000D0AC5E4D6C3204524
:1031F00053503832363620CDEAB1CF0D0A000000E8
:1032000038000020440000200D0A0D0AB6C1C8A1F4
:103210004448543131B3C9B9A6210D0ACAAAB6C867
:10322000CEAA25642E256420A3A5524820A3ACCEA7
:10323000C2B6C8CEAA2025642E2564A1E6200D0AB8
:10324000000000005265616420444854313120453B
:1032500052524F52210D0A002573000049000020F0
:103260000D0AD5FDD4DAD6D8C1ACC8C8B5E3BACDFD
:10327000B7FECEF1C6F7202E2E2E2E2E2E0D0A00D2
:103280000D0AD6D8C1ACC8C8B5E3BACDB7FECEF1E9
:10329000C6F7B3C9B9A60D0A00000000544F0008D4
:1032A000084F00087B2274656D70657261747572D9
:1032B00065223A256C662C2268756D69646974799B
:1032C000223A256C667D00001A48006840F0807044
:1032D000184908600020184948600846006840F016
:1032E00001000860704714484068704731B50023FA
:1032F00012480068124DB0FBF5F0009D00FB05F48C
:1033000000BFFFF7F0FF024611E0FFF7ECFF0146B8
:1033100091420CD0914202D9881A034403E0C2F1D1
:10332000FF30084403440A46A34200D300E0ECE720
:1033300000BF38BDFCED00E0001000E00000002000
:1033400040420F0010B580210F48FDF77AF910BDFB
:1033500008B501210820FDF783FB10208DF803003C
:103360008020ADF8000003208DF802006946064871
:10337000FDF7BAF8FFF7E6FF08BD10B58021024857
:10338000FDF761F910BD0000000C014008B54FF4D5
:10339000E060FCF7DBFF36208DF8000000208DF8A0
:1033A000010003208DF8020001208DF8030068461B
:1033B000FCF7D1FF08BD0EB501211020FDF75DFB24
:1033C00047F22F50ADF8040041F61F40ADF8000061
:1033D00069460B48FDF77CFC01210948FEF79AFA83
:1033E000012211460648FDF7EAFF01210448FDF7D6
:1033F000CBFF0EBD10B5FFF7C9FFFFF7DCFF10BD17
:103400000010004008B501211120FDF729FB012122
:103410005A48FDF73AF918208DF8030003208DF87B
:1034200002004020ADF8000069465548FDF75CF801
:103430008020ADF8000069465148FDF755F84FF47B
:103440008070ADF8000069464D48FDF74DF84FF427
:103450000070ADF8000069464948FDF745F808BD21
:103460000EB50020ADF80600ADF8020040F2E730DE
:10347000ADF804004720ADF8000069464148FDF76B
:1034800027FC0EBD1FB57020ADF800000120ADF87F
:1034900002000020ADF80800ADF806006946394882
:1034A000FDF753FC08213748FEF79EF8694635487A
:1034B000FDF78DFC08213348FEF79FF86946314837
:1034C000FDF7D2FC08212F48FEF7A4F869462D48E5
:1034D000FDF715FD08212B48FEF7A5F81FBD10B517
:1034E00001210220FDF7C9FAFFF78CFFFFF7B8FFB3
:1034F000FFF7C8FF01212348FDF746FF10BD30B597
:1035000089B005460C4601210920FDF7A9FA0121E1
:103510001D48FDF7BAF82020ADF8200018208DF8DE
:10352000230003208DF8220008A91848FCF7DCFFCF
:10353000ADF81850ADF814400020ADF81A00ADF801
:10354000160005A90F48FDF7C3FB7020ADF8040075
:103550000120ADF806000020ADF80C00ADF80A001F
:1035600001A90848FDF733FC08210648FEF745F895
:1035700001210448FDF708FF09B030BD000C1A0016
:10358000001001400004004000081A00000C014037
:1035900010B5482001F062FC5A49086000215A48E1
:1035A000584A1268C2E90010564A12689160D16008
:1035B0000020544A126810615061524A1268116228
:1035C0005162504A12689162D1624E4A126890610B
:1035D000D0614C4A12689063D0634A4A1268116302
:1035E0005163484A12681164516410BD2DE9FF5FB0
:1035F00044480068D0E90E43424800682246D0E9BA
:103600000C61304600F021FB3E4A1268C2E9080115
:103610003C480068D0E908433A4800682246D0E9AF
:103620000661304600F070FA364A1268C2E90601B7
:1036300034480068D0E90A43324800682246D0E99D
:103640000861304600F001FB80462E480068D0E952
:1036500004432246404600F0FEFACDE90201294823
:103660000068D0E90643274800682246D0E9026195
:10367000304600F0F0FA8046894622480068D0E9DA
:10368000084320480168D1E900612246304600F035
:10369000E2FA824642464B4600F036FACDE9000196
:1036A000DDE9022300F030FA164A1268C2E910017F
:1036B00014480068D0E90810124A1268C2E90A10DA
:1036C000104800680022114BD0E91041204600F05C
:1036D000E1FB05D200210D480A4A1268C2E9101028
:1036E0000848006800221346D0E91041204600F047
:1036F000B9FB04D20021034A126811645164BDE889
:10370000FF9F0000280000200000F03F0000144050
:10371000D2B201E000F8012B491EFBD27047002213
:10372000F6E710B513460A4604461946FFF7F0FFC0
:10373000204610BD30B505462A460B4612F8010B4F
:1037400013F8014B08B1A042F8D01CB1002802D0F8
:103750006D1CF1E7284630BD0022CBB201789942BA
:1037600000D10246401C0029F8D1104670470000E5
:103770000FB400B58DB010A909900B9000914FF0D7
:10378000FF300A9000200C900548069005480790ED
:103790006A4609A80F9900F013FC0DB05DF814FB00
:1037A000DD3F0008FB3F00082DE9FF4F087883B09C
:1037B0009946FF2805D0491C2D2804D0002400205C
:1037C00008E000200BE00124F9E700EB800003EBA8
:1037D0004000491C0B78FF2BF7D104B14042002375
:1037E0000293147819461D462D2C01D02B2C04D1A0
:1037F000521C2D2C13D000240294AA461478FF2CBE
:103800000FD00A25A3FB057801FB05814FF0000CC2
:1038100003FB0C11521CE3194AEB0101EEE70124F2
:10382000EAE7814453EA010002D019F5C87F06DABD
:1038300003980021C0E9001107B0BDE8F08F002512
:10384000AE4E2F46DFF8B882184600F044FCCDE9B2
:103850000001B9F1000002DAC9F1000400E00446F9
:103860000023A74A1AEB030B42EB045A12E0E007CD
:1038700007D02A4633463846414600F0ECF9074661
:1038800088462A4633461046194600F0E4F90546B4
:103890000E466410002CEAD1DDE90001B9F1000FF9
:1038A0005A46534606DA00F048FA3A46434600F0D4
:1038B00044FA05E000F0CFF93A46434600F0CBF970
:1038C000029A0AB181F00041039AC2E90001B3E70C
:1038D0002DE9FF4F1F468DB0D7E901464FF0FF3865
:1038E0002E2045464FF000090B90B9696D1C0E98CB
:1038F0008847396A824688470028F6D1BAF1FF3FE7
:103900000AD024F4D064002E11DDBAF12B0F08D0B8
:10391000BAF12D0F0BD102E0404611B08DE744F40F
:103920008064B9696D1C0E9888478246761E694688
:10393000600501D52D2000E02B208DF8000001F15D
:10394000010B0DF1200809E0B9696D1C0E9888473C
:1039500082460F9844F40074761E0560002E02DD46
:10396000BAF1300FF0D00B998A453ED144F0800473
:1039700006E00F99681CA9F1010944F4007408607D
:10398000B9696D1C761E0E98884782463028F0D0A3
:103990002BE00B998A4505D1200603D444F080041E
:1039A000761E18E0504600F0C9FE08B30DF1130171
:1039B000761E44F400748B4508D2AAF130000BF84F
:1039C000010B200607D5A9F1010003E0200602D46F
:1039D00009F101008146A00502D50F99681C086015
:1039E000B9696D1C0E9888478246002ED1DC53E0E1
:1039F000002E51DDBAF1650F02D0BAF1450F4BD15F
:103A0000A00549D5B9696D1C24F44074761E0E9842
:103A100088478246002E0CDD2B2804D0BAF12D0FEA
:103A200007D144F48074B9696D1C0E9888478246AA
:103A3000761EE00501D52D2100E02B2108F8011BA1
:103A4000CDF82C8021E00DF12901761E44F400749C
:103A500088450CD2AAF1300010F0FF0088F8000071
:103A600002D10B99884509D908F1010806E0E00563
:103A700001D5244801E042F20F708146B9696D1CFE
:103A80000E98884782460F980560002E04DD504648
:103A900000F054FE0028D6D1F9690E988847FF201F
:103AA0008BF8000088F800000020069007904B4635
:103AB0006A4608A906A8FFF777FEA00502D46FF0B2
:103AC00001002AE714F0240F0AD0E00714D1DDE941
:103AD00006123868031D3B600068C0E900120BE065
:103AE000DDE9060100F01BFB0146E00704D1386860
:103AF000021D3A600068016028460EE7000014408D
:103B00000000F03FF1D8FFFF2DE9FE4F804681EA2B
:103B10000300C00F0C46009021F0004123F0004547
:103B2000B8EB0200A94105D24046214690461C460A
:103B30000B46024623F00040104347D0270DC7F341
:103B40000A00C3F30A510290401A019040286BDA30
:103B5000C3F3130040F4801B0098924620B1002369
:103B6000D2EB030A63EB0B0B01985946C0F14002FC
:103B7000504600F0EEF906460D4650465946019A69
:103B800000F006FA10EB08006141002487EA1152A8
:103B900084EAE7731A4340D0009A62B3019A012A7B
:103BA0004FEA075215DC001B61EB02014FF00042A7
:103BB00002EA0752CDE90042001C41F5801132466D
:103BC0002B4600F03AFA03B0BDE8F08F404621469C
:103BD000F9E7001B61EB0201001C41F5801300189E
:103BE0005B412018A2F5001747EB030140EAD570AE
:103BF000B6196D4111E06D084FEA360645EAC07509
:103C00004FEA0752001B61EB0201001C41F58011D5
:103C100049084FEA30000019514132462B4603B0A3
:103C2000BDE8F04F00F0FAB90098012240000023EF
:103C3000D0EB020263EBE073009821464FEAE07498
:103C4000B8EB000061EB0401E9E783F000435BE7B8
:103C500081F0004158E72DE9FE4F81EA030404F0AA
:103C6000004421F0004100944FF0000B23F000438A
:103C700050EA01045ED052EA03045BD0C3F30A5455
:103C8000C1F30A552C44A4F2F3340194A0FB02546E
:103C9000C1F3130141F48011C3F3130343F4801300
:103CA00001FB024400FB034E840A970A44EA815454
:103CB00047EA8357A4FB076802958D0A05FB078531
:103CC0004FEA932C04FB0C542705029D4FEA06583B
:103CD00047EA1637B5EB08056EEB070C870E920E18
:103CE00047EA811742EA8312A7FB0201B6EB0B01F8
:103CF00064EB00042B0D43EA0C335E1844EB1C50BC
:103D0000DA465146E7FB0201C5F313044FEA0B33D1
:103D100043EA14534FEA0432019C43EA0603A4F138
:103D20000C040294009CCDE900B400F086F903B0C5
:103D3000BDE8F08F00200146F9E72DE9F04D81EA5A
:103D4000030404F0004B21F0004514464FF0000A34
:103D500023F0004150EA050220D054EA01021DD0B0
:103D6000C5F30A570246C5F31303C1F31300C1F3A9
:103D70000A5640F4801543F48013A7EB0608101B85
:103D8000D64608F2FD3873EB050002D308F10108AE
:103D900001E092185B41B8F1000F03DA0020014600
:103DA000BDE8F08D00204FF48011064684460EE0F9
:103DB000171B73EB050705D3121B63EB05030643C3
:103DC0004CEA010C49084FEA300092185B4150EA76
:103DD0000107EDD152EA030012D082EA040083EA1F
:103DE0000501084305D0101BAB4106D20122002378
:103DF00006E000224FF0004302E06FF00102531092
:103E00001AEB06004CEB085110EB0A0041EB0B01DA
:103E1000BDE8F04D00F002B90EB540F23341029119
:103E20000021CDE900110A460B4600F006F903B067
:103E300000BDC1F30A5210B5C1F3130140F2FF33C4
:103E400041F480119A4201DA002010BD40F2334360
:103E50009A42A2F2334203DC524200F089F810BDCC
:103E6000904010BD30B5041E71F1000404DB4FF02A
:103E70000044404264EB0101141E73F1000405DBB1
:103E80001C464FF00043524263EB04038B4208BFD1
:103E9000824230BD30B5041E71F1000404DB4FF0E6
:103EA0000044404264EB0101141E73F1000405DB81
:103EB0001C464FF00043524263EB0403994208BF93
:103EC000904230BD30B50B4601460020202201242F
:103ED00009E021FA02F59D4205D303FA02F5491BD8
:103EE00004FA02F52844151EA2F10102F1DC30BDEE
:103EF0002DE9F05F0546002092469B46884606461F
:103F0000814640241BE0284641464746224600F0B1
:103F10002FF853465A46C01A914110D311461846FD
:103F2000224600F016F82D1A67EB01084F4622468C
:103F30000120002100F00DF817EB00094E41201E72
:103F4000A4F10104DFDC484631462A464346BDE879
:103F5000F09F202A04DB203A00FA02F1002070478B
:103F60009140C2F1200320FA03F3194390407047B7
:103F7000202A04DB203A21FA02F00021704721FABE
:103F800002F3D040C2F12002914008431946704725
:103F9000202A06DBCB17203A41FA02F043EAE0730D
:103FA00006E041FA02F3D040C2F1200291400843FA
:103FB000194670470268114413780160184670472B
:103FC000D160044951610449116200211161114617
:103FD00000F0DAB8B53F00087D410008426842B100
:103FE000016811F8013B23B1521EC0E900121846C6
:103FF00070470121C160881E704742685AB1C3688A
:10400000016843B983688B4205D0491E521CC0E940
:104010000012002070474FF0FF30704710B5141E9B
:1040200073F1000408DA401C41F1000192185B4171
:104030001A4301D120F0010010BD2DE9F04D924648
:104040009B4611B1B1FA81F202E0B0FA80F220325F
:104050009046FFF77EFF04460F4640EA0A0041EA19
:104060000B0153465A46084313D0114653EA010048
:1040700019D0C8F140025046FFF77AFF05460E46B8
:10408000504659464246FFF764FF084305D00120D9
:1040900004E020463946BDE8F08D0020054346EA9D
:1040A000E0762C4337430A986305E40AA0EB080046
:1040B0000022FD0A44EA47540A3002D50020014696
:1040C000E9E7010510196941DDE908450019694171
:1040D000BDE8F04DA2E70EB540F233420292002255
:1040E000CDE900221346FFF7A8FF03B000BDC1F3DE
:1040F0000A52C1F3130140F2FF3341F480119A4296
:1041000002DA00200146704740F233439A42A2F29D
:10411000334202DC5242FFF72BBFFFF71ABF01F018
:10412000004330B421F0004150EA010206D00A0DEC
:10413000A2F56072C1F31301002A02DC30BC00203A
:104140007047440F44EAC104C100E01830BC00EBE2
:10415000C25000F0B1B90000064C074D06E0E0681F
:1041600040F0010394E8070098471034AC42F6D3BE
:10417000FBF7E2FF0C5000082C500008C0B24FF4CF
:10418000F05100F0D1B900002DE9F34F8BB04FF0A2
:10419000000801F10C000C464FF0010B46460DF1F2
:1041A000080A01906269012101989047051E2DD0EF
:1041B000252D2CD0216A8847C0B162690121019860
:1041C0009047216A88470028F7D1411E626901980B
:1041D000904700E0761CA1690B988847216A8847C0
:1041E0000028F7D1E1690B988847DBE7A1690B98B4
:1041F00088470746A84201D1761CD3E7E1690B98AE
:1042000088477F1C02D1B8F1000F6FD047E100272B
:1042100062693D463946019890472A2804D162696F
:104220000121019890470125DFF8889262690121F8
:1042300001989047A0F130010A290AD24F45E5DCE8
:1042400007EB870100EB4107303FDFD445F0100555
:10425000ECE7E90601D46FF000476C280AD04C283F
:1042600014D0682815D06A280DD074281CD07A285C
:104270001AD01DE062690121019890476C2802D094
:1042800045F0040514E045F002050DE045F0200579
:104290000AE06269012101989047682802D045F040
:1042A000080505E045F40065626901210198904721
:1042B000C4E9015765283DD019DC58287AD00CDCB8
:1042C000452837D004DC252826D0412831D131E0DB
:1042D00046282FD047282CD12CE05B2877D06128A6
:1042E00028D063287CD0642823D15AE0D1E06F28FD
:1042F00048D008DC66281DD067281BD0692821D04B
:104300006E2816D127E0702845D0732868D075280C
:1043100047D078280DD14DE0A1690B988847054614
:1043200025283FF469AFE1690B9888476D1C3FF47D
:104330006AAFB4E023466A466FF001000B99FFF7BD
:10434000C7FA9FE045F040006060A80723464FF0A1
:10435000000236D43EE0E8077FF447AF2068011D35
:1043600021600068290501D506701BE7290701D5E2
:10437000068017E7A90703D5F117C0E9006111E727
:1043800006600FE745F040006060A80723464FF045
:10439000080216D41EE040F60E0125EA0100606016
:1043A00016E045F040006060A80723464FF00A027F
:1043B00007D40FE045F040006060A80708D5234609
:1043C00010226FF001000B99AFF300805AE007E074
:1043D000234610226FF001000B99AFF3008051E0EB
:1043E0004FF000094F464B46632802D05B2807D0A8
:1043F00041E02079C00601D40120A06001273AE005
:1044000062690121019890475E2805D14FF00109AA
:104410006269494601989047216939B900210A46E5
:10442000534643F82120491C0829FADBB0B321691F
:1044300069B9C11700EBD16253110AEB830122F075
:104440001F02821A01200B68904003430B606269CF
:104450000121019890475D28E8D1B9F1000F09D0FA
:104460000020514651F82020D24341F82020401C22
:104470000828F7DB02AB224600976FF001000B998A
:10448000AFF3008000280CDA401C08D1BBF1000F0C
:1044900005D04FF0FF300DB0BDE8F08FFFE740468C
:1044A000F9E7E90701D108F1010806444FF0000BD4
:1044B00078E60000CCCCCC0C0029A8BF7047401C8B
:1044C000490008BF20F00100704710B4B0FA80FC2A
:1044D00000FA0CF050EA010404BF10BC704749B167
:1044E000CCF1200421FA04F411FA0CF118BF0121D7
:1044F00021430843A3EB0C01CB1D4FEA00614FEAB7
:10450000102042BF002010BC704700EBC350104485
:104510000029A4BF10BC7047401C490008BF20F010
:10452000010010BC704700007F2801D9002208E07C
:10453000064A02EB5002C007127800D1120902F0BD
:104540000F0201209040084070470000C84E00084C
:104550000FB4054B10B503A9044A029800F0F6F811
:1045600010BC5DF814FB00001F2600084C00002062
:104570000FB4084B10B504A902AA039800F0E6F89E
:10458000044602A9002000F064FC204610BC5DF83F
:1045900014FB0000534E000802E008C8121F08C1B7
:1045A000002AFAD170477047002001E001C1121FB4
:1045B000002AFBD1704700002DE9FF5F82B0002187
:1045C000DDE90430020DDDF840B0034318D044F6B5
:1045D0001050A2F2FF3242431514119801281FD047
:1045E000A5EB0B00401C5FEA000A4FF000064E4F9F
:1045F000DFF83891B046504615D5CAF1000413E0F3
:10460000119801244AA3012801D16FEA0B010298F5
:10461000119AC0E90031C0E9024206B0BDE8F09F3E
:10462000CBF10000DFE704460021404A491842EB85
:104630000450CDE9001012E0E00707D032463B46B7
:1046400040464946FFF707FB8046894632463B46CF
:1046500010461946FFF7FFFA06460F466410002C75
:10466000EAD1DDE90401DDE90023BAF1000F06DA41
:10467000FFF7F1FA42464B46FFF7EDFA05E0FFF788
:104680005CFB42464B46FFF758FB04460E460022B1
:10469000284BFFF7FFFB03D84FF0FF30014607E040
:1046A0000022254B20463146FFF72EFAFFF71FFD6B
:1046B000102409E0002C0ADB0A220023FFF718FC73
:1046C000039B30321A55641E50EA0102F2D1641C79
:1046D000039AC4F111031444119A012A03D0012250
:1046E00008430DD10AE0084304D000204FF0110B1D
:1046F000119072E7A3EB0B056D1E0DE05B4504DD29
:104700004FF0000205F1010504E003DA4FF000026A
:10471000A5F10105002AECD002981199C0E90231F7
:10472000C0E9004579E70000000014400000F03FB8
:10473000300000000000F0430000E03F30380A285D
:1047400001D2012070470020704700002DE9FF4F83
:1047500095B09A46884606460025EEE1252877D191
:1047600000242746F94A0121039400E0044316F887
:10477000013F203B01FA03F01042F7D130782A289C
:1047800011D06FF02F033078A0F13002092A16D82B
:10479000039A44F0020402EB820203EB420210444B
:1047A000761C0390EFE758F8042B0392002A03DAF3
:1047B000504244F40054039044F00204761C3078D4
:1047C0002E2816D116F8010F44F004042A280DD023
:1047D0006FF02F023078A0F13003092B09D807EBD6
:1047E000870302EB4303C718761CF3E758F8047BF2
:1047F000761C30786C280FD006DC4C2817D068283F
:104800000DD06A2814D104E0742810D07A280FD172
:104810000DE044F400140AE044F4801401E044F490
:1048200040147278824202D104F58014761C761C02
:10483000307866280BD013DC582877D009DC0028A4
:1048400075D04528F6D04628F4D047281AD193E1F0
:1048500018E0632835D0642879D0652812D18BE11F
:10486000702873D008DC6728F1D069286FD06E28D3
:104870000DD06F2806D1ACE073282CD0752874D0E9
:10488000782853D05246179990476D1C54E1C4F3D1
:104890000250022809D003280DD0D8F800100428AF
:1048A0000DD00D6008F1040846E1D8F80010EA17B1
:1048B000C1E90052F6E7D8F800100D80F2E70D705C
:1048C000F0E718F8041B8DF8001000208DF80100A7
:1048D000EB46012003E058F804BB4FF0FF306107BE
:1048E0004FF0000102D40DE009F101018946B942FF
:1048F0000FDA8145F8DB1BF809100029F4D108E034
:1049000009F1010189468142FADB1BF809100029EF
:10491000F6D103985346A0EB090721463846179A6B
:1049200000F080FA284400EB090507E044E008E1C4
:104930000DE01BF8010B524617999047B9F1010998
:10494000F7D2534621463846179AF2E039E00A2159
:10495000C4F302524FF0000B0091022A06D058F81F
:10496000040BC117032A09D00AE023E008F107006D
:1049700020F00702F2E80201904605E000B2C117FC
:10498000042A01D140B2C117002906DA0A460021E3
:10499000404261EB02012D2202E0220504D52B22C8
:1049A0008DF80420012203E0E20701D02022F7E77E
:1049B000914657E00A2100E010214FF0000B0091D2
:1049C0000BE010214FF0000B44F004040827009185
:1049D00003E008204FF0000B0090C4F30252022ABB
:1049E00005D058F8040B0021032A08D008E008F18C
:1049F000070020F00702F2E80201904603E080B2CF
:104A0000042A00D1C0B24FF0000922072AD532781B
:104A1000702A07D0DDF800C08CF0100C5CEA0B0C9B
:104A200005D00EE040228DF80420012208E050EA73
:104A3000010306D030238DF804308DF805200222C2
:104A40009146009B83F0080353EA0B030AD150EA16
:104A5000010201D1620705D530228DF804204FF004
:104A600001097F1E3278582A04D039A20C920CAA70
:104A700002920BE03BA2F9E75B46009AFFF738FA97
:104A80000C9B9B5C029A521E0292137050EA010228
:104A9000F2D1029804A9081A00F1200B600702D590
:104AA00024F4803400E001275F4502DDA7EB0B0012
:104AB00000E0002000EB0B01009003984944401AED
:104AC0000390E00306D453462146179A039800F05A
:104AD000A9F90544002706E001A85246C05D1799D0
:104AE00090476D1C7F1C4F45F6DBE0030CD5534609
:104AF0002146179A039800F095F9054404E0302008
:104B00005246179990476D1C0099481E0090002945
:104B1000F5DC08E00298029952460078491C02919F
:104B2000179990476D1CBBF10001ABF1010BF1DC53
:104B30005BE100F065F90544761C307800287FF4CD
:104B40000DAE19B02846BDE8F08F0000092801001D
:104B500030313233343536373839616263646566F3
:104B600000000000303132333435363738394142B5
:104B70004344454600000000600700D4062708F1C2
:104B8000070020F00700F0E80223804603F0004C05
:104B90005FEA0C0001D097A009E0200501D596A09E
:104BA00005E0E00701D095A001E0AFF24C001390C2
:104BB000307823F0004365280CD006DC452809D066
:104BC00046281DD047287FD13BE0662818D06728AB
:104BD0007AD136E00021112F01DB112000E0781C92
:104BE000CDE9000104A90CA8FFF7E6FCDDE90D0101
:104BF0000C9A4FF0000B07F10109109200914EE062
:104C00004FF000400097CDE9011004A90CA8FFF770
:104C1000D3FCDDE90D020C9B0F994FF0000B914680
:104C20001093009211B9791C00EB0109B7EB090050
:104C300003D4C0F1FF3B07F10109A9EB0700019084
:104C400042E0012F00DA01270021112F01DD1120A0
:104C500000E03846CDE9000104A90CA8FFF7ACFC40
:104C6000DDE90D010C9A00914FF0000BB94610924E
:104C700021070FD4009A4A4503DA914601E0A9F1D1
:104C80000109B9F1010F05DD109AA9F10101515C8B
:104C90003029F4D0B84202DA10F1040F03DA01210E
:104CA000CDE9011010E0002803DC8344A9EB0001EA
:104CB00002E0411C494500DD8946A0EB0B00401C89
:104CC00001904FF000400290200705D4019848451C
:104CD00002DB4FF0FF30019000208DF84B0002986E
:104CE0000DF14B07B0F1004F25D002200C902B2086
:104CF0000D90029800280CDA404202902D200D9071
:104D000007E00A210298FFF7DDF83031029007F83A
:104D1000011D0C99481E0C900029F2DC0298002815
:104D2000EFD1791E0D980870307800F0200040F027
:104D3000450007F8020D11A8C01BC01D0290139872
:104D4000007800B1012000EB0901019801EBE0714E
:104D5000029801440398401A401E0390E00306D4D1
:104D600053462146179A039800F05CF805441398BF
:104D7000007818B15246179990476D1CE00323D56F
:104D800053462146179A039800F04CF805441BE05F
:104D9000BBF1000F07DB0098584504DD1098179908
:104DA00010F80B0001E01799302052469047019807
:104DB0000BF1010B401E05F10105019004D12E20DD
:104DC0005246179990476D1CB9F10001A9F10109EC
:104DD000DEDC05E017F8010B5246179990476D1C71
:104DE0000299481E02900029F4DC53462146179A86
:104DF00003989EE62D0000002B000000200000001C
:104E00002DE9F041044600251E461746880404D4C7
:104E100005E039462020B0476D1C641EF9D52846B0
:104E2000BDE8F0812DE9F041044600251E4690467C
:104E3000C80301D5302700E02027880404D505E009
:104E400041463846B0476D1C641EF9D52846BDE87A
:104E5000F0810A68531C0B6010707047F0B50B307E
:104E6000154D20F007010024144A0FE003688B421F
:104E70000BD38B4205D95E1A43184768C3E9006714
:104E800000E04368136002C004E0021D10680028BF
:104E9000ECD12046002802D1286808B10020F0BDDE
:104EA000064A07481060074A121A22F00702C0E9B2
:104EB000002401202860D7E7540000205000002083
:104EC00064080020600A0020DDDDDDDDDCBBBBDD29
:104ED000DDDDDDDDDDDDDDDD98888888888888889A
:104EE00077777777778888888555555666666666BA
:104EF0006666666666688888833333322222222299
:104F0000222222222228888D474554202F61706951
:104F10002F53657474696E6756616C7565204854CB
:104F200054502F312E310D0A486F73743A203139A5
:104F3000322E3136382E312E3130383A3133343644
:104F4000350D0A6163636570743A202A2F2A0D0AB1
:104F50000D0A0000504F5354202F6170692F4D658A
:104F600061737572656456616C75653F74656D70CB
:104F7000657261747572653D256C662668756D692C
:104F8000646974793D256C6620485454502F312E45
:104F9000310D0A486F73743A203139322E31363868
:104FA0002E312E3130383A31333436350D0A6163C3
:104FB000636570743A20746578742F706C61696EE3
:104FC0000D0A436F6E74656E742D4C656E67746860
:104FD0003A20300D0A436F6E74656E742D547970EB
:104FE000653A206170706C69636174696F6E2F78C7
:104FF0002D7777772D666F726D2D75726C656E6388
:105000006F6465640D0A0D0A000000002C50000852
:105010000000002058000000984500088450000857
:1050200058000020080E0000A845000800A24A040D
:105030000000000000000000010203040607080948
:10504000000000000102030401020304060708092E
:10505000020406080000000000000000000000003C
:105060000000000000000000000000000000000040
:105070000000000000000000000000000000000030
:04508000000000002C
:0400000508000131BD
:00000001FF
